{
  "contractName": "RealEstateAgency",
  "abi": [
    {
      "inputs": [],
      "stateMutability": "nonpayable",
      "type": "constructor"
    },
    {
      "anonymous": false,
      "inputs": [
        {
          "indexed": false,
          "internalType": "address",
          "name": "owner",
          "type": "address"
        },
        {
          "indexed": false,
          "internalType": "uint256",
          "name": "estateId",
          "type": "uint256"
        },
        {
          "indexed": false,
          "internalType": "uint256",
          "name": "adId",
          "type": "uint256"
        },
        {
          "indexed": false,
          "internalType": "uint256",
          "name": "timestamp",
          "type": "uint256"
        },
        {
          "indexed": false,
          "internalType": "uint256",
          "name": "price",
          "type": "uint256"
        }
      ],
      "name": "AdCreated",
      "type": "event"
    },
    {
      "anonymous": false,
      "inputs": [
        {
          "indexed": false,
          "internalType": "address",
          "name": "owner",
          "type": "address"
        },
        {
          "indexed": false,
          "internalType": "uint256",
          "name": "estateId",
          "type": "uint256"
        },
        {
          "indexed": false,
          "internalType": "uint256",
          "name": "adId",
          "type": "uint256"
        },
        {
          "indexed": false,
          "internalType": "uint256",
          "name": "timestamp",
          "type": "uint256"
        },
        {
          "indexed": false,
          "internalType": "enum RealEstateAgency.AdStatus",
          "name": "status",
          "type": "uint8"
        }
      ],
      "name": "AdUpdated",
      "type": "event"
    },
    {
      "anonymous": false,
      "inputs": [
        {
          "indexed": false,
          "internalType": "address",
          "name": "owner",
          "type": "address"
        },
        {
          "indexed": false,
          "internalType": "uint256",
          "name": "estateId",
          "type": "uint256"
        },
        {
          "indexed": false,
          "internalType": "uint256",
          "name": "timestamp",
          "type": "uint256"
        },
        {
          "indexed": false,
          "internalType": "enum RealEstateAgency.EstateType",
          "name": "estateType",
          "type": "uint8"
        }
      ],
      "name": "EstateCreated",
      "type": "event"
    },
    {
      "anonymous": false,
      "inputs": [
        {
          "indexed": false,
          "internalType": "address",
          "name": "owner",
          "type": "address"
        },
        {
          "indexed": false,
          "internalType": "address",
          "name": "buyer",
          "type": "address"
        },
        {
          "indexed": false,
          "internalType": "uint256",
          "name": "adId",
          "type": "uint256"
        },
        {
          "indexed": false,
          "internalType": "uint256",
          "name": "estateId",
          "type": "uint256"
        },
        {
          "indexed": false,
          "internalType": "enum RealEstateAgency.AdStatus",
          "name": "adStatus",
          "type": "uint8"
        },
        {
          "indexed": false,
          "internalType": "uint256",
          "name": "timestamp",
          "type": "uint256"
        },
        {
          "indexed": false,
          "internalType": "uint256",
          "name": "price",
          "type": "uint256"
        }
      ],
      "name": "EstatePurchased",
      "type": "event"
    },
    {
      "anonymous": false,
      "inputs": [
        {
          "indexed": false,
          "internalType": "address",
          "name": "owner",
          "type": "address"
        },
        {
          "indexed": false,
          "internalType": "uint256",
          "name": "estateId",
          "type": "uint256"
        },
        {
          "indexed": false,
          "internalType": "uint256",
          "name": "timestamp",
          "type": "uint256"
        },
        {
          "indexed": false,
          "internalType": "bool",
          "name": "isActive",
          "type": "bool"
        }
      ],
      "name": "EstateUpdated",
      "type": "event"
    },
    {
      "anonymous": false,
      "inputs": [
        {
          "indexed": false,
          "internalType": "address",
          "name": "receiver",
          "type": "address"
        },
        {
          "indexed": false,
          "internalType": "uint256",
          "name": "amount",
          "type": "uint256"
        },
        {
          "indexed": false,
          "internalType": "uint256",
          "name": "timestamp",
          "type": "uint256"
        }
      ],
      "name": "FundsSent",
      "type": "event"
    },
    {
      "inputs": [],
      "name": "adCount",
      "outputs": [
        {
          "internalType": "uint256",
          "name": "",
          "type": "uint256"
        }
      ],
      "stateMutability": "view",
      "type": "function",
      "constant": true
    },
    {
      "inputs": [
        {
          "internalType": "uint256",
          "name": "",
          "type": "uint256"
        }
      ],
      "name": "ads",
      "outputs": [
        {
          "internalType": "uint256",
          "name": "id",
          "type": "uint256"
        },
        {
          "internalType": "uint256",
          "name": "estateId",
          "type": "uint256"
        },
        {
          "internalType": "address",
          "name": "owner",
          "type": "address"
        },
        {
          "internalType": "uint256",
          "name": "price",
          "type": "uint256"
        },
        {
          "internalType": "enum RealEstateAgency.AdStatus",
          "name": "status",
          "type": "uint8"
        }
      ],
      "stateMutability": "view",
      "type": "function",
      "constant": true
    },
    {
      "inputs": [],
      "name": "estateCount",
      "outputs": [
        {
          "internalType": "uint256",
          "name": "",
          "type": "uint256"
        }
      ],
      "stateMutability": "view",
      "type": "function",
      "constant": true
    },
    {
      "inputs": [
        {
          "internalType": "uint256",
          "name": "",
          "type": "uint256"
        }
      ],
      "name": "estates",
      "outputs": [
        {
          "internalType": "uint256",
          "name": "id",
          "type": "uint256"
        },
        {
          "internalType": "address",
          "name": "owner",
          "type": "address"
        },
        {
          "internalType": "enum RealEstateAgency.EstateType",
          "name": "estateType",
          "type": "uint8"
        },
        {
          "internalType": "bool",
          "name": "isActive",
          "type": "bool"
        }
      ],
      "stateMutability": "view",
      "type": "function",
      "constant": true
    },
    {
      "inputs": [],
      "name": "owner",
      "outputs": [
        {
          "internalType": "address",
          "name": "",
          "type": "address"
        }
      ],
      "stateMutability": "view",
      "type": "function",
      "constant": true
    },
    {
      "inputs": [],
      "name": "pendingWithdrawal",
      "outputs": [
        {
          "internalType": "uint256",
          "name": "",
          "type": "uint256"
        }
      ],
      "stateMutability": "view",
      "type": "function",
      "constant": true
    },
    {
      "inputs": [
        {
          "internalType": "enum RealEstateAgency.EstateType",
          "name": "estateType",
          "type": "uint8"
        }
      ],
      "name": "createEstate",
      "outputs": [],
      "stateMutability": "nonpayable",
      "type": "function"
    },
    {
      "inputs": [
        {
          "internalType": "uint256",
          "name": "estateId",
          "type": "uint256"
        },
        {
          "internalType": "uint256",
          "name": "price",
          "type": "uint256"
        }
      ],
      "name": "createAd",
      "outputs": [],
      "stateMutability": "nonpayable",
      "type": "function"
    },
    {
      "inputs": [
        {
          "internalType": "uint256",
          "name": "estateId",
          "type": "uint256"
        }
      ],
      "name": "updateEstateStatus",
      "outputs": [],
      "stateMutability": "nonpayable",
      "type": "function"
    },
    {
      "inputs": [
        {
          "internalType": "uint256",
          "name": "adId",
          "type": "uint256"
        },
        {
          "internalType": "enum RealEstateAgency.AdStatus",
          "name": "status",
          "type": "uint8"
        }
      ],
      "name": "updateAdStatus",
      "outputs": [],
      "stateMutability": "nonpayable",
      "type": "function"
    },
    {
      "inputs": [
        {
          "internalType": "uint256",
          "name": "adId",
          "type": "uint256"
        }
      ],
      "name": "purchaseEstate",
      "outputs": [],
      "stateMutability": "payable",
      "type": "function",
      "payable": true
    },
    {
      "inputs": [
        {
          "internalType": "uint256",
          "name": "amount",
          "type": "uint256"
        }
      ],
      "name": "withdrawFunds",
      "outputs": [],
      "stateMutability": "nonpayable",
      "type": "function"
    },
    {
      "inputs": [],
      "name": "getBalance",
      "outputs": [
        {
          "internalType": "uint256",
          "name": "",
          "type": "uint256"
        }
      ],
      "stateMutability": "view",
      "type": "function",
      "constant": true
    },
    {
      "inputs": [],
      "name": "getAllEstates",
      "outputs": [
        {
          "components": [
            {
              "internalType": "uint256",
              "name": "id",
              "type": "uint256"
            },
            {
              "internalType": "address",
              "name": "owner",
              "type": "address"
            },
            {
              "internalType": "enum RealEstateAgency.EstateType",
              "name": "estateType",
              "type": "uint8"
            },
            {
              "internalType": "bool",
              "name": "isActive",
              "type": "bool"
            }
          ],
          "internalType": "struct RealEstateAgency.Estate[]",
          "name": "",
          "type": "tuple[]"
        }
      ],
      "stateMutability": "view",
      "type": "function",
      "constant": true
    },
    {
      "inputs": [],
      "name": "getAllAds",
      "outputs": [
        {
          "components": [
            {
              "internalType": "uint256",
              "name": "id",
              "type": "uint256"
            },
            {
              "internalType": "uint256",
              "name": "estateId",
              "type": "uint256"
            },
            {
              "internalType": "address",
              "name": "owner",
              "type": "address"
            },
            {
              "internalType": "uint256",
              "name": "price",
              "type": "uint256"
            },
            {
              "internalType": "enum RealEstateAgency.AdStatus",
              "name": "status",
              "type": "uint8"
            }
          ],
          "internalType": "struct RealEstateAgency.Ad[]",
          "name": "",
          "type": "tuple[]"
        }
      ],
      "stateMutability": "view",
      "type": "function",
      "constant": true
    }
  ],
  "bytecode": "0x608060405234801561001057600080fd5b5033600560006101000a81548173ffffffffffffffffffffffffffffffffffffffff021916908373ffffffffffffffffffffffffffffffffffffffff1602179055506124b2806100616000396000f3fe6080604052600436106100e85760003560e01c8063703116e51161008a5780639c89dcf3116100595780639c89dcf3146102c5578063b79f4423146102f0578063ccb8ff711461031b578063d70f83c214610344576100e8565b8063703116e51461021d5780637e288822146102465780638da5cb5b146102715780639193cf561461029c576100e8565b806311a7a4c0116100c657806311a7a4c01461015d57806312065fe01461019e578063155dd5ee146101c957806343f689e0146101f2576100e8565b8063031aa2f8146100ed5780630626f3f11461011657806306f470e914610141575b600080fd5b3480156100f957600080fd5b50610114600480360381019061010f91906117be565b610384565b005b34801561012257600080fd5b5061012b610631565b6040516101389190611fe2565b60405180910390f35b61015b60048036038101906101569190611759565b61086c565b005b34801561016957600080fd5b50610184600480360381019061017f9190611759565b610ac1565b604051610195959493929190612184565b60405180910390f35b3480156101aa57600080fd5b506101b3610b24565b6040516101c09190612124565b60405180910390f35b3480156101d557600080fd5b506101f060048036038101906101eb9190611759565b610b2c565b005b3480156101fe57600080fd5b50610207610c9f565b6040516102149190612124565b60405180910390f35b34801561022957600080fd5b50610244600480360381019061023f9190611759565b610ca5565b005b34801561025257600080fd5b5061025b610fa5565b6040516102689190612124565b60405180910390f35b34801561027d57600080fd5b50610286610fab565b6040516102939190611dcf565b60405180910390f35b3480156102a857600080fd5b506102c360048036038101906102be9190611730565b610fd1565b005b3480156102d157600080fd5b506102da61117d565b6040516102e79190612124565b60405180910390f35b3480156102fc57600080fd5b50610305611183565b6040516103129190611fc0565b60405180910390f35b34801561032757600080fd5b50610342600480360381019061033d9190611782565b6113b9565b005b34801561035057600080fd5b5061036b60048036038101906103669190611759565b611592565b60405161037b949392919061213f565b60405180910390f35b3373ffffffffffffffffffffffffffffffffffffffff1660008084815260200190815260200160002060010160009054906101000a900473ffffffffffffffffffffffffffffffffffffffff1673ffffffffffffffffffffffffffffffffffffffff1614610427576040517f08c379a000000000000000000000000000000000000000000000000000000000815260040161041e906120a4565b60405180910390fd5b60008083815260200190815260200160002060010160159054906101000a900460ff16610489576040517f08c379a000000000000000000000000000000000000000000000000000000000815260040161048090612104565b60405180910390fd5b6040518060a0016040528060035481526020018381526020013373ffffffffffffffffffffffffffffffffffffffff168152602001828152602001600060018111156104fe577f4e487b7100000000000000000000000000000000000000000000000000000000600052602160045260246000fd5b815250600160006003548152602001908152602001600020600082015181600001556020820151816001015560408201518160020160006101000a81548173ffffffffffffffffffffffffffffffffffffffff021916908373ffffffffffffffffffffffffffffffffffffffff1602179055506060820151816003015560808201518160040160006101000a81548160ff021916908360018111156105cc577f4e487b7100000000000000000000000000000000000000000000000000000000600052602160045260246000fd5b02179055509050507ff46665ce22d6a77b3297b0989d6aa2b3c785817e19615683d175ccd96c20f3b93383600354428560405161060d959493929190611f6d565b60405180910390a16003600081548092919061062890612376565b91905055505050565b6060600060025467ffffffffffffffff811115610677577f4e487b7100000000000000000000000000000000000000000000000000000000600052604160045260246000fd5b6040519080825280602002602001820160405280156106b057816020015b61069d6115fc565b8152602001906001900390816106955790505b5090506000805b600254811015610863576000806000838152602001908152602001600020600001541461085057600080828152602001908152602001600020604051806080016040529081600082015481526020016001820160009054906101000a900473ffffffffffffffffffffffffffffffffffffffff1673ffffffffffffffffffffffffffffffffffffffff1673ffffffffffffffffffffffffffffffffffffffff1681526020016001820160149054906101000a900460ff1660028111156107a6577f4e487b7100000000000000000000000000000000000000000000000000000000600052602160045260246000fd5b60028111156107de577f4e487b7100000000000000000000000000000000000000000000000000000000600052602160045260246000fd5b81526020016001820160159054906101000a900460ff161515151581525050838381518110610836577f4e487b7100000000000000000000000000000000000000000000000000000000600052603260045260246000fd5b6020026020010181905250818061084c90612376565b9250505b808061085b90612376565b9150506106b7565b50819250505090565b600060018111156108a6577f4e487b7100000000000000000000000000000000000000000000000000000000600052602160045260246000fd5b6001600083815260200190815260200160002060040160009054906101000a900460ff166001811115610902577f4e487b7100000000000000000000000000000000000000000000000000000000600052602160045260246000fd5b14610942576040517f08c379a0000000000000000000000000000000000000000000000000000000008152600401610939906120e4565b60405180910390fd5b600160008281526020019081526020016000206003015434101561099b576040517f08c379a000000000000000000000000000000000000000000000000000000000815260040161099290612084565b60405180910390fd5b34600460008282546109ad919061225a565b92505081905550600180600083815260200190815260200160002060040160006101000a81548160ff02191690836001811115610a13577f4e487b7100000000000000000000000000000000000000000000000000000000600052602160045260246000fd5b02179055507fbbceb034f0feb6558b7413c059751723f2fecaa7ad78fb2f575a2a21e09bd8b56001600083815260200190815260200160002060020160009054906101000a900473ffffffffffffffffffffffffffffffffffffffff16338360016000868152602001908152602001600020600101546001426001600089815260200190815260200160002060030154604051610ab69796959493929190611dea565b60405180910390a150565b60016020528060005260406000206000915090508060000154908060010154908060020160009054906101000a900473ffffffffffffffffffffffffffffffffffffffff16908060030154908060040160009054906101000a900460ff16905085565b600047905090565b600560009054906101000a900473ffffffffffffffffffffffffffffffffffffffff1673ffffffffffffffffffffffffffffffffffffffff163373ffffffffffffffffffffffffffffffffffffffff1614610bbc576040517f08c379a0000000000000000000000000000000000000000000000000000000008152600401610bb390612024565b60405180910390fd5b600454811115610c01576040517f08c379a0000000000000000000000000000000000000000000000000000000008152600401610bf890612044565b60405180910390fd5b8060046000828254610c1391906122b0565b925050819055503373ffffffffffffffffffffffffffffffffffffffff166108fc829081150290604051600060405180830381858888f19350505050158015610c60573d6000803e3d6000fd5b507ffdd35bfceee29e2f27edfa486a97c10467293a1f95ba36516bee8b23edbd563d338242604051610c9493929190611e59565b60405180910390a150565b60025481565b3373ffffffffffffffffffffffffffffffffffffffff1660008083815260200190815260200160002060010160009054906101000a900473ffffffffffffffffffffffffffffffffffffffff1673ffffffffffffffffffffffffffffffffffffffff1614610d48576040517f08c379a0000000000000000000000000000000000000000000000000000000008152600401610d3f90612064565b60405180910390fd5b60008082815260200190815260200160002060010160159054906101000a900460ff161560008083815260200190815260200160002060010160156101000a81548160ff0219169083151502179055507f6eef5a19301833f7308259cccaebfa3dbed337a56b113874ce0f63182dbc9a9933824260008086815260200190815260200160002060010160159054906101000a900460ff16604051610def9493929190611e90565b60405180910390a160008082815260200190815260200160002060010160159054906101000a900460ff16610fa25760005b600354811015610fa057816001600083815260200190815260200160002060010154148015610ee3575060006001811115610e85577f4e487b7100000000000000000000000000000000000000000000000000000000600052602160045260246000fd5b6001600083815260200190815260200160002060040160009054906101000a900460ff166001811115610ee1577f4e487b7100000000000000000000000000000000000000000000000000000000600052602160045260246000fd5b145b15610f8d57600180600083815260200190815260200160002060040160006101000a81548160ff02191690836001811115610f47577f4e487b7100000000000000000000000000000000000000000000000000000000600052602160045260246000fd5b02179055507f540416da04d38992c262d2ba0301c58e002f74b97936cbbc742aff38e4e12898338383426001604051610f84959493929190611f1a565b60405180910390a15b8080610f9890612376565b915050610e21565b505b50565b60045481565b600560009054906101000a900473ffffffffffffffffffffffffffffffffffffffff1681565b604051806080016040528060025481526020013373ffffffffffffffffffffffffffffffffffffffff168152602001826002811115611039577f4e487b7100000000000000000000000000000000000000000000000000000000600052602160045260246000fd5b81526020016001151581525060008060025481526020019081526020016000206000820151816000015560208201518160010160006101000a81548173ffffffffffffffffffffffffffffffffffffffff021916908373ffffffffffffffffffffffffffffffffffffffff16021790555060408201518160010160146101000a81548160ff021916908360028111156110fb577f4e487b7100000000000000000000000000000000000000000000000000000000600052602160045260246000fd5b021790555060608201518160010160156101000a81548160ff0219169083151502179055509050507f060f7a11d5ef7cce6c70e7cfebbe03dd1e3669837233127a3fcb70daf8311f4c33600254428460405161115a9493929190611ed5565b60405180910390a16002600081548092919061117590612376565b919050555050565b60035481565b6060600060035467ffffffffffffffff8111156111c9577f4e487b7100000000000000000000000000000000000000000000000000000000600052604160045260246000fd5b60405190808252806020026020018201604052801561120257816020015b6111ef611674565b8152602001906001900390816111e75790505b5090506000805b6003548110156113b057600060016000838152602001908152602001600020600001541461139d57600160008281526020019081526020016000206040518060a001604052908160008201548152602001600182015481526020016002820160009054906101000a900473ffffffffffffffffffffffffffffffffffffffff1673ffffffffffffffffffffffffffffffffffffffff1673ffffffffffffffffffffffffffffffffffffffff168152602001600382015481526020016004820160009054906101000a900460ff16600181111561130e577f4e487b7100000000000000000000000000000000000000000000000000000000600052602160045260246000fd5b6001811115611346577f4e487b7100000000000000000000000000000000000000000000000000000000600052602160045260246000fd5b81525050838381518110611383577f4e487b7100000000000000000000000000000000000000000000000000000000600052603260045260246000fd5b6020026020010181905250818061139990612376565b9250505b80806113a890612376565b915050611209565b50819250505090565b3373ffffffffffffffffffffffffffffffffffffffff166001600084815260200190815260200160002060020160009054906101000a900473ffffffffffffffffffffffffffffffffffffffff1673ffffffffffffffffffffffffffffffffffffffff161461145d576040517f08c379a000000000000000000000000000000000000000000000000000000000815260040161145490612004565b60405180910390fd5b6000806001600085815260200190815260200160002060010154815260200190815260200160002060010160159054906101000a900460ff166114d5576040517f08c379a00000000000000000000000000000000000000000000000000000000081526004016114cc906120c4565b60405180910390fd5b806001600084815260200190815260200160002060040160006101000a81548160ff02191690836001811115611534577f4e487b7100000000000000000000000000000000000000000000000000000000600052602160045260246000fd5b02179055507f540416da04d38992c262d2ba0301c58e002f74b97936cbbc742aff38e4e12898336001600085815260200190815260200160002060010154844285604051611586959493929190611f1a565b60405180910390a15050565b60006020528060005260406000206000915090508060000154908060010160009054906101000a900473ffffffffffffffffffffffffffffffffffffffff16908060010160149054906101000a900460ff16908060010160159054906101000a900460ff16905084565b604051806080016040528060008152602001600073ffffffffffffffffffffffffffffffffffffffff16815260200160006002811115611665577f4e487b7100000000000000000000000000000000000000000000000000000000600052602160045260246000fd5b81526020016000151581525090565b6040518060a001604052806000815260200160008152602001600073ffffffffffffffffffffffffffffffffffffffff16815260200160008152602001600060018111156116eb577f4e487b7100000000000000000000000000000000000000000000000000000000600052602160045260246000fd5b81525090565b60008135905061170081612445565b92915050565b60008135905061171581612455565b92915050565b60008135905061172a81612465565b92915050565b60006020828403121561174257600080fd5b600061175084828501611706565b91505092915050565b60006020828403121561176b57600080fd5b60006117798482850161171b565b91505092915050565b6000806040838503121561179557600080fd5b60006117a38582860161171b565b92505060206117b4858286016116f1565b9150509250929050565b600080604083850312156117d157600080fd5b60006117df8582860161171b565b92505060206117f08582860161171b565b9150509250929050565b60006118068383611cf4565b60a08301905092915050565b600061181e8383611d5c565b60808301905092915050565b611833816122e4565b82525050565b611842816122e4565b82525050565b6000611853826121f7565b61185d8185612227565b9350611868836121d7565b8060005b8381101561189957815161188088826117fa565b975061188b8361220d565b92505060018101905061186c565b5085935050505092915050565b60006118b182612202565b6118bb8185612238565b93506118c6836121e7565b8060005b838110156118f75781516118de8882611812565b97506118e98361221a565b9250506001810190506118ca565b5085935050505092915050565b61190d816122f6565b82525050565b61191c816122f6565b82525050565b61192b81612352565b82525050565b61193a81612352565b82525050565b61194981612364565b82525050565b61195881612364565b82525050565b600061196b602883612249565b91507f4f6e6c7920746865206164206f776e65722063616e207570646174652074686560008301527f207374617475732e0000000000000000000000000000000000000000000000006020830152604082019050919050565b60006119d1602b83612249565b91507f4f6e6c7920636f6e7472616374206f776e65722063616e2063616c6c2074686960008301527f732066756e6374696f6e2e0000000000000000000000000000000000000000006020830152604082019050919050565b6000611a37602383612249565b91507f496e73756666696369656e742066756e647320696e2074686520636f6e74726160008301527f63742e00000000000000000000000000000000000000000000000000000000006020830152604082019050919050565b6000611a9d602c83612249565b91507f4f6e6c792074686520657374617465206f776e65722063616e2075706461746560008301527f20746865207374617475732e00000000000000000000000000000000000000006020830152604082019050919050565b6000611b03602a83612249565b91507f496e73756666696369656e742066756e647320746f207075726368617365207460008301527f6865206573746174652e000000000000000000000000000000000000000000006020830152604082019050919050565b6000611b69602783612249565b91507f4f6e6c792074686520657374617465206f776e65722063616e2063726561746560008301527f20616e2061642e000000000000000000000000000000000000000000000000006020830152604082019050919050565b6000611bcf603283612249565b91507f54686520657374617465206d7573742062652061637469766520746f2075706460008301527f61746520746865206164207374617475732e00000000000000000000000000006020830152604082019050919050565b6000611c35602b83612249565b91507f546865206164206d757374206265206f70656e20746f2070757263686173652060008301527f746865206573746174652e0000000000000000000000000000000000000000006020830152604082019050919050565b6000611c9b602a83612249565b91507f54686520657374617465206d7573742062652061637469766520746f2063726560008301527f61746520616e2061642e000000000000000000000000000000000000000000006020830152604082019050919050565b60a082016000820151611d0a6000850182611db1565b506020820151611d1d6020850182611db1565b506040820151611d30604085018261182a565b506060820151611d436060850182611db1565b506080820151611d566080850182611922565b50505050565b608082016000820151611d726000850182611db1565b506020820151611d85602085018261182a565b506040820151611d986040850182611940565b506060820151611dab6060850182611904565b50505050565b611dba81612348565b82525050565b611dc981612348565b82525050565b6000602082019050611de46000830184611839565b92915050565b600060e082019050611dff600083018a611839565b611e0c6020830189611839565b611e196040830188611dc0565b611e266060830187611dc0565b611e336080830186611931565b611e4060a0830185611dc0565b611e4d60c0830184611dc0565b98975050505050505050565b6000606082019050611e6e6000830186611839565b611e7b6020830185611dc0565b611e886040830184611dc0565b949350505050565b6000608082019050611ea56000830187611839565b611eb26020830186611dc0565b611ebf6040830185611dc0565b611ecc6060830184611913565b95945050505050565b6000608082019050611eea6000830187611839565b611ef76020830186611dc0565b611f046040830185611dc0565b611f11606083018461194f565b95945050505050565b600060a082019050611f2f6000830188611839565b611f3c6020830187611dc0565b611f496040830186611dc0565b611f566060830185611dc0565b611f636080830184611931565b9695505050505050565b600060a082019050611f826000830188611839565b611f8f6020830187611dc0565b611f9c6040830186611dc0565b611fa96060830185611dc0565b611fb66080830184611dc0565b9695505050505050565b60006020820190508181036000830152611fda8184611848565b905092915050565b60006020820190508181036000830152611ffc81846118a6565b905092915050565b6000602082019050818103600083015261201d8161195e565b9050919050565b6000602082019050818103600083015261203d816119c4565b9050919050565b6000602082019050818103600083015261205d81611a2a565b9050919050565b6000602082019050818103600083015261207d81611a90565b9050919050565b6000602082019050818103600083015261209d81611af6565b9050919050565b600060208201905081810360008301526120bd81611b5c565b9050919050565b600060208201905081810360008301526120dd81611bc2565b9050919050565b600060208201905081810360008301526120fd81611c28565b9050919050565b6000602082019050818103600083015261211d81611c8e565b9050919050565b60006020820190506121396000830184611dc0565b92915050565b60006080820190506121546000830187611dc0565b6121616020830186611839565b61216e604083018561194f565b61217b6060830184611913565b95945050505050565b600060a0820190506121996000830188611dc0565b6121a66020830187611dc0565b6121b36040830186611839565b6121c06060830185611dc0565b6121cd6080830184611931565b9695505050505050565b6000819050602082019050919050565b6000819050602082019050919050565b600081519050919050565b600081519050919050565b6000602082019050919050565b6000602082019050919050565b600082825260208201905092915050565b600082825260208201905092915050565b600082825260208201905092915050565b600061226582612348565b915061227083612348565b9250827fffffffffffffffffffffffffffffffffffffffffffffffffffffffffffffffff038211156122a5576122a46123bf565b5b828201905092915050565b60006122bb82612348565b91506122c683612348565b9250828210156122d9576122d86123bf565b5b828203905092915050565b60006122ef82612328565b9050919050565b60008115159050919050565b60008190506123108261241d565b919050565b600081905061232382612431565b919050565b600073ffffffffffffffffffffffffffffffffffffffff82169050919050565b6000819050919050565b600061235d82612302565b9050919050565b600061236f82612315565b9050919050565b600061238182612348565b91507fffffffffffffffffffffffffffffffffffffffffffffffffffffffffffffffff8214156123b4576123b36123bf565b5b600182019050919050565b7f4e487b7100000000000000000000000000000000000000000000000000000000600052601160045260246000fd5b7f4e487b7100000000000000000000000000000000000000000000000000000000600052602160045260246000fd5b6002811061242e5761242d6123ee565b5b50565b60038110612442576124416123ee565b5b50565b6002811061245257600080fd5b50565b6003811061246257600080fd5b50565b61246e81612348565b811461247957600080fd5b5056fea2646970667358221220c9e2de71b7da9874fd640eb701cad751ff71483ebc16d80cb7f523432ee1fb9164736f6c63430008000033",
  "immutableReferences": {},
  "source": "// SPDX-License-Identifier: MIT\r\npragma solidity ^0.8.0;\r\n\r\ncontract RealEstateAgency {\r\n    enum EstateType { Apartment, House, Land }\r\n    enum AdStatus { Open, Closed }\r\n\r\n    struct Estate {\r\n        uint id;\r\n        address owner;\r\n        EstateType estateType;\r\n        bool isActive;\r\n    }\r\n\r\n    struct Ad {\r\n        uint id;\r\n        uint estateId;\r\n        address owner;\r\n        uint price;\r\n        AdStatus status;\r\n    }\r\n\r\n    mapping(uint => Estate) public estates;\r\n    mapping(uint => Ad) public ads;\r\n\r\n    uint public estateCount;\r\n    uint public adCount;\r\n\r\n    uint public pendingWithdrawal;\r\n\r\n    address public owner;\r\n\r\n    event EstateCreated(address owner, uint estateId, uint timestamp, EstateType estateType);\r\n    event AdCreated(address owner, uint estateId, uint adId, uint timestamp, uint price);\r\n    event EstateUpdated(address owner, uint estateId, uint timestamp, bool isActive);\r\n    event AdUpdated(address owner, uint estateId, uint adId, uint timestamp, AdStatus status);\r\n    event EstatePurchased(address owner, address buyer, uint adId, uint estateId, AdStatus adStatus, uint timestamp, uint price);\r\n    event FundsSent(address receiver, uint amount, uint timestamp);\r\n\r\n    constructor() {\r\n        owner = msg.sender;\r\n    }\r\n\r\n    modifier onlyOwner() {\r\n        require(msg.sender == owner, \"Only contract owner can call this function.\");\r\n        _;\r\n    }\r\n\r\n    function createEstate(EstateType estateType) public { // createEstate:            .   EstateCreated.\r\n        estates[estateCount] = Estate(estateCount, msg.sender, estateType, true);\r\n        emit EstateCreated(msg.sender, estateCount, block.timestamp, estateType);\r\n        estateCount++;\r\n    }\r\n\r\n    function createAd(uint estateId, uint price) public {//  createAd:         . ,          .   AdCreated.\r\n        require(estates[estateId].owner == msg.sender, \"Only the estate owner can create an ad.\");\r\n        require(estates[estateId].isActive, \"The estate must be active to create an ad.\");\r\n        ads[adCount] = Ad(adCount, estateId, msg.sender, price, AdStatus.Open);\r\n        emit AdCreated(msg.sender, estateId, adCount, block.timestamp, price);\r\n        adCount++;\r\n    }\r\n\r\n    function updateEstateStatus(uint estateId) public { //   (/)   .\r\n        require(estates[estateId].owner == msg.sender, \"Only the estate owner can update the status.\");\r\n        estates[estateId].isActive = !estates[estateId].isActive;\r\n        emit EstateUpdated(msg.sender, estateId, block.timestamp, estates[estateId].isActive);\r\n\r\n        if (!estates[estateId].isActive) {\r\n            for (uint i = 0; i < adCount; i++) {\r\n                if (ads[i].estateId == estateId && ads[i].status == AdStatus.Open) {\r\n                    ads[i].status = AdStatus.Closed;\r\n                    emit AdUpdated(msg.sender, estateId, i, block.timestamp, AdStatus.Closed);\r\n                }\r\n            }\r\n        }\r\n    }\r\n\r\n    function updateAdStatus(uint adId, AdStatus status) public { //   (/)   .\r\n        require(ads[adId].owner == msg.sender, \"Only the ad owner can update the status.\");\r\n        require(estates[ads[adId].estateId].isActive, \"The estate must be active to update the ad status.\");\r\n        ads[adId].status = status;\r\n        emit AdUpdated(msg.sender, ads[adId].estateId, adId, block.timestamp, status);\r\n    }\r\n\r\n    function purchaseEstate(uint adId) public payable { //   ,    -\r\n        require(ads[adId].status == AdStatus.Open, \"The ad must be open to purchase the estate.\");\r\n        require(msg.value >= ads[adId].price, \"Insufficient funds to purchase the estate.\");\r\n\r\n        pendingWithdrawal += msg.value;\r\n        ads[adId].status = AdStatus.Closed;\r\n\r\n        emit EstatePurchased(\r\n            ads[adId].owner,\r\n            msg.sender,\r\n            adId,\r\n            ads[adId].estateId,\r\n\r\n            AdStatus.Closed,\r\n            block.timestamp,\r\n            ads[adId].price\r\n        );\r\n    }\r\n\r\n    function withdrawFunds(uint amount) public onlyOwner { //      -.\r\n        require(amount <= pendingWithdrawal, \"Insufficient funds in the contract.\");\r\n        pendingWithdrawal -= amount;\r\n        payable(msg.sender).transfer(amount);\r\n        emit FundsSent(msg.sender, amount, block.timestamp);\r\n    }\r\n\r\n    function getBalance() public view returns (uint) {\r\n        return address(this).balance;\r\n    }\r\n\r\n    function getAllEstates() public view returns (Estate[] memory) {  //     .\r\n        Estate[] memory result = new Estate[](estateCount);\r\n        uint counter = 0;\r\n        for (uint i = 0; i < estateCount; i++) {\r\n            if (estates[i].id != 0) {\r\n                result[counter] = estates[i];\r\n                counter++;\r\n            }\r\n        }\r\n        return result;\r\n    }\r\n\r\n    function getAllAds() public view returns (Ad[] memory) { //    .\r\n        Ad[] memory result = new Ad[](adCount);\r\n        uint counter = 0;\r\n        for (uint i = 0; i < adCount; i++) {\r\n            if (ads[i].id != 0) {\r\n                result[counter] = ads[i];\r\n                counter++;\r\n            }\r\n        }\r\n        return result;\r\n    }\r\n}\r\n",
  "sourcePath": "C:\\Users\\Eduard\\PycharmProjects\\crypto\\Agency\\contracts\\agent.sol",
  "compiler": {
    "name": "solc",
    "version": "0.8.0+commit.c7dfd78e.Emscripten.clang"
  },
  "schemaVersion": "3.4.16",
  "updatedAt": "2024-05-09T20:58:49.436Z",
  "networkType": "ethereum",
  "devdoc": {
    "kind": "dev",
    "methods": {},
    "version": 1
  },
  "userdoc": {
    "kind": "user",
    "methods": {},
    "version": 1
  }
}